{"abi":[{"type":"function","name":"domains","inputs":[{"name":"","type":"string","internalType":"string"}],"outputs":[{"name":"","type":"address","internalType":"address"}],"stateMutability":"view"},{"type":"function","name":"registerDomain","inputs":[{"name":"domain","type":"string","internalType":"string"}],"outputs":[],"stateMutability":"nonpayable"},{"type":"function","name":"resolveDomain","inputs":[{"name":"domain","type":"string","internalType":"string"}],"outputs":[{"name":"","type":"address","internalType":"address"}],"stateMutability":"view"},{"type":"function","name":"reverseDomains","inputs":[{"name":"","type":"address","internalType":"address"}],"outputs":[{"name":"","type":"string","internalType":"string"}],"stateMutability":"view"},{"type":"function","name":"reverseResolve","inputs":[{"name":"addr","type":"address","internalType":"address"}],"outputs":[{"name":"","type":"string","internalType":"string"}],"stateMutability":"view"},{"type":"function","name":"transferDomain","inputs":[{"name":"domain","type":"string","internalType":"string"},{"name":"newOwner","type":"address","internalType":"address"}],"outputs":[],"stateMutability":"nonpayable"},{"type":"event","name":"DomainRegistered","inputs":[{"name":"domain","type":"string","indexed":true,"internalType":"string"},{"name":"owner","type":"address","indexed":true,"internalType":"address"}],"anonymous":false},{"type":"event","name":"DomainTransferred","inputs":[{"name":"domain","type":"string","indexed":true,"internalType":"string"},{"name":"newOwner","type":"address","indexed":true,"internalType":"address"}],"anonymous":false}],"bytecode":{"object":"0x6080604052348015600e575f5ffd5b506107f58061001c5f395ff3fe608060405234801561000f575f5ffd5b5060043610610060575f3560e01c806319fbe87e146100645780632644923514610079578063364460f3146100c95780633df24197146100dc5780639af8b7aa146100fc578063a5cad08a1461010f575b5f5ffd5b610077610072366004610590565b610122565b005b6100ac6100873660046105db565b80516020818301810180515f825292820191909301209152546001600160a01b031681565b6040516001600160a01b0390911681526020015b60405180910390f35b6100ac6100d73660046105db565b610250565b6100ef6100ea366004610615565b61027f565b6040516100c09190610635565b6100ef61010a366004610615565b610316565b61007761011d3660046105db565b6103bf565b336001600160a01b03165f8360405161013b919061066a565b908152604051908190036020019020546001600160a01b0316146101b25760405162461bcd60e51b815260206004820152602360248201527f596f7520617265206e6f7420746865206f776e6572206f662074686520646f6d60448201526230b4b760e91b60648201526084015b60405180910390fd5b805f836040516101c2919061066a565b908152604080516020928190038301902080546001600160a01b0319166001600160a01b039485161790559183165f9081526001909152206102048382610704565b50806001600160a01b03168260405161021d919061066a565b604051908190038120907fdd63f6902a6b6bded38ce8f7f7f8b9d9c5916bfa7cc3932470465086884efb3c905f90a35050565b5f5f82604051610260919061066a565b908152604051908190036020019020546001600160a01b031692915050565b60016020525f90815260409020805461029790610680565b80601f01602080910402602001604051908101604052809291908181526020018280546102c390610680565b801561030e5780601f106102e55761010080835404028352916020019161030e565b820191905f5260205f20905b8154815290600101906020018083116102f157829003601f168201915b505050505081565b6001600160a01b0381165f90815260016020526040902080546060919061033c90610680565b80601f016020809104026020016040519081016040528092919081815260200182805461036890610680565b80156103b35780601f1061038a576101008083540402835291602001916103b3565b820191905f5260205f20905b81548152906001019060200180831161039657829003601f168201915b50505050509050919050565b5f6001600160a01b03165f826040516103d8919061066a565b908152604051908190036020019020546001600160a01b03161461043e5760405162461bcd60e51b815260206004820152601960248201527f446f6d61696e20616c726561647920726567697374657265640000000000000060448201526064016101a9565b335f8260405161044e919061066a565b908152604080516020928190038301902080546001600160a01b0319166001600160a01b039490941693909317909255335f9081526001909152206104938282610704565b5060405133906104a490839061066a565b604051908190038120907f70f2ff07e8136617cdfb0433423063c9dd697c507560d7860cce09fa86874a12905f90a350565b634e487b7160e01b5f52604160045260245ffd5b5f82601f8301126104f9575f5ffd5b813567ffffffffffffffff811115610513576105136104d6565b604051601f8201601f19908116603f0116810167ffffffffffffffff81118282101715610542576105426104d6565b604052818152838201602001851015610559575f5ffd5b816020850160208301375f918101602001919091529392505050565b80356001600160a01b038116811461058b575f5ffd5b919050565b5f5f604083850312156105a1575f5ffd5b823567ffffffffffffffff8111156105b7575f5ffd5b6105c3858286016104ea565b9250506105d260208401610575565b90509250929050565b5f602082840312156105eb575f5ffd5b813567ffffffffffffffff811115610601575f5ffd5b61060d848285016104ea565b949350505050565b5f60208284031215610625575f5ffd5b61062e82610575565b9392505050565b602081525f82518060208401528060208501604085015e5f604082850101526040601f19601f83011684010191505092915050565b5f82518060208501845e5f920191825250919050565b600181811c9082168061069457607f821691505b6020821081036106b257634e487b7160e01b5f52602260045260245ffd5b50919050565b601f8211156106ff57805f5260205f20601f840160051c810160208510156106dd5750805b601f840160051c820191505b818110156106fc575f81556001016106e9565b50505b505050565b815167ffffffffffffffff81111561071e5761071e6104d6565b6107328161072c8454610680565b846106b8565b6020601f821160018114610764575f831561074d5750848201515b5f19600385901b1c1916600184901b1784556106fc565b5f84815260208120601f198516915b828110156107935787850151825560209485019460019092019101610773565b50848210156107b057868401515f19600387901b60f8161c191681555b50505050600190811b0190555056fea26469706673582212204d0432f8b1655750b3a9f7420a9fed0f3d41c2a0d4a9855f66a6b56c69edaa7664736f6c634300081c0033","linkReferences":{}},"methodIdentifiers":{"domains(string)":"26449235","registerDomain(string)":"a5cad08a","resolveDomain(string)":"364460f3","reverseDomains(address)":"3df24197","reverseResolve(address)":"9af8b7aa","transferDomain(string,address)":"19fbe87e"},"id":23}